:1000000012C0A5C02BC02AC029C028C027C026C046
:10001000ADC25AC023C022C021C020C01FC01EC014
:100020001DC01CC01BC011241FBECFE5D4E0DEBF25
:10003000CDBF10E0A0E6B0E0E0EDF0E102C0059039
:100040000D92AC3AB107D9F711E0ACEAB0E001C0CB
:100050001D92A333B107E1F7DBD238C8D1CF89B7FE
:10006000816089BF12BE85E083BF089524E630E039
:10007000AC01429FC001439F900D529F900D1124EF
:100080006FEF73E025D5CB01880F991F660F771F9F
:10009000660F771F660F771F860F971FB90118D558
:1000A000862F08955D9BFECF8CB90895CF93DF9383
:1000B000EC018881882329F02196F4DF8991882337
:1000C000E1F7DF91CF9108951F920F920FB60F9233
:1000D00011244F935F936F937F938F939F93AF936D
:1000E000BF93EF93FF938BEC90E04091CB00509146
:1000F000CC006091CD007091CE00FC0172936293B0
:10010000529342931092CB001092CC001092CD00EB
:100110001092CE000597DC011C9280819181A28112
:10012000B3810097A105B10509F413BE86E982BF2A
:10013000FF91EF91BF91AF919F918F917F916F91BF
:100140005F914F910F900FBE0F901F9018951F92C7
:100150000F920FB60F9211242F933F934F935F93FB
:100160006F937F938F939F93AF93BF93EF93FF937F
:1001700092B380E1892782BB8091C600882359F120
:1001800022B78091CB009091CC00A091CD00B0918E
:10019000CE00880F991FAA1FBB1F8093CB0090939E
:1001A000CC00A093CD00B093CE00822F86598A3028
:1001B000B0F08091CB009091CC00A091CD00B09197
:1001C000CE0081608093CB009093CC00A093CD00B3
:1001D000B093CE0004C081E08093C60040DF86E982
:1001E00082BFFF91EF91BF91AF919F918F917F91CE
:1001F0006F915F914F913F912F910F900FBE0F9094
:100200001F90189522B390E1922792BB9FEF4F3F2A
:100210005907F1F187B9369A3699FECF24B135B135
:100220002417350720F098B3692B68BB04C098B336
:100230006095692368BB8230C1F0833028F488233D
:1002400051F0813029F50CC08430C9F0843090F031
:100250008530F1F419C03093B7002093B6000895AB
:100260003093B5002093B40008953093B3002093E9
:10027000B20008953093B1002093B00008953093F8
:10028000AF002093AE0008953093AD002093AC00F2
:100290000895CF9300D000D000D0EDB7FEB73196CF
:1002A0002FEC30E0ADB7BEB712963C932E9311976A
:1002B00020E630E033832283958384831DD42DB7D9
:1002C0003EB72A5F3F4F0FB6F8943EBF0FBE2DBF1B
:1002D000853051F0C4E0C81B01C0C82F80E2E2DEC7
:1002E0008C2F8150CC23C9F78FEC90E0DFDE83E6C2
:1002F00090E0DCDECF9108954F925F926F927F92F3
:100300008F929F92AF92BF92CF92DF92FF920F9304
:100310001F93CF93DF9300D000D000D0CDB7DEB7CE
:100320008091C500882309F00BC181E08093C5004E
:100330008CE0B8DE86E690E0B9DE86E990E0B6DED5
:1003400001E010E00F2EF9E9AF2EF0E0BF2EF02D06
:100350000F2EFFECCF2EF0E0DF2EF02D0F2EFDE95B
:100360008F2EF0E09F2EF02DC501A0DE802F815052
:100370009091C400981711F48AE201C080E292DEE5
:1003800000D000D000D0EDB7FEB73196ADB7BEB704
:100390001296DC92CE921197938282821583048307
:1003A000ABD3EDB7FEB736960FB6F894FEBF0FBECF
:1003B000EDBFC6017BDE0F5F1F4F07301105A1F6B1
:1003C00082EA90E073DE86E690E070DE8091C20003
:1003D0009091C3004BDE89838091C0009091C10051
:1003E00045DE8A838091BE009091BF003FDE8B8303
:1003F0008091BC009091BD0039DE8C838091BA0061
:100400009091BB0033DE8D838091B8009091B9004C
:100410002DDE8E830F2EFAE0FF2EF02D0F2EF6E943
:100420006F2EF0E07F2EF02D0F2EF7E0CF2EDD2483
:10043000F02DCC0EDD1E0F2EF6EAAF2EF0E0BF2E13
:10044000F02D0F2EF3E68F2EF0E09F2EF02D0F2EC5
:10045000F2EA4F2EF0E05F2EF02DC30127DE8E0171
:100460000F5F1F4FC50122DED8018D918D018F15C1
:1004700010F083E201C080E215DEC40117DE0C1526
:100480001D0581F7C20112DEFA9439F70F2EF6E648
:10049000CF2EF0E0DF2EF02DC60108DE06E910E0D9
:1004A000C80104DE8091C2009091C300F2DE809109
:1004B000C0009091C100EDDE8091BE009091BF0020
:1004C000E8DE8091BC009091BD00E3DE8091BA002F
:1004D0009091BB00DEDE8091B8009091B900D9DE2A
:1004E0000F2EF2EAAF2EF0E0BF2EF02DC501DEDDBB
:1004F000C601DCDDC801DADD8091B6009091B7005D
:10050000C8DE8091B4009091B500C3DE8091B20046
:100510009091B300BEDE8091B0009091B100B9DE41
:100520008091AE009091AF00B4DE8091AC009091CC
:10053000AD00AFDEC501BADDC601B8DD1092C50061
:1005400026960FB6F894DEBF0FBECDBFDF91CF91D8
:100550001F910F91FF90DF90CF90BF90AF909F9031
:100560008F907F906F905F904F9008951F920F92A1
:100570000FB60F9211242F933F934F935F936F9376
:100580007F938F939F93AF93BF93EF93FF9392B318
:1005900080E1892782BB4091C2005091C30080E076
:1005A00061E030DE4091C0005091C10081E062E026
:1005B00029DE4091BE005091BF0082E064E022DE5F
:1005C0004091BC005091BD0083E068E01BDE40918B
:1005D000BA005091BB0084E060E114DE4091B800A5
:1005E0005091B90085E060E20DDE949885DEFF91C0
:1005F000EF91BF91AF919F918F917F916F915F919B
:100600004F913F912F910F900FBE0F901F90189513
:1006100018BA8FEF85BB14BA87BB8C9A10BC83E3E2
:1006200089B988E18AB986E880BD85E08EBD89B741
:10063000846089BF8BB780648BBF85B7816085BFBD
:100640000EDD80E888B910BE85E886B980E090E0CC
:1006500041D49093C3008093C20082E090E03AD4EA
:100660009093C1008093C00084E090E033D49093D5
:10067000BF008093BE0086E090E02CD49093BD0034
:100680008093BC0088E090E025D49093BB008093D9
:10069000BA008AE090E01ED49093B9008093B8002D
:1006A0002BDE7894C7ECD0E000E010E00F2EFFEFD7
:1006B000EF2EF3E0FF2EF02D88819981AA81BB8176
:1006C0000097A105B105C1F388819981AA81BB81F9
:1006D000883A28EA920722E0A20722E0B20709F44A
:1006E0003FC0893A28EA920722E0A20722E0B20737
:1006F00098F4883A2AEA920722E0A20720E0B2079B
:1007000009F4A4C188322AEA920722E8A20720E06D
:10071000B20709F0D8C1E1C0883222EA920722E884
:10072000A20728E0B20791F0883A20EA920722E077
:10073000A2072AE0B207F1F0883A22EA920722E003
:10074000A20728E0B20709F0BEC19FC18091C40092
:10075000882309F4B8C181508093C400CDDDB3C1B2
:100760008091C400853008F0AEC18F5F8093C400D3
:10077000C3DDA9C18091C400823009F445C0833033
:1007800030F4882371F0813009F0A5C023C0843093
:1007900009F46EC0843008F451C0853009F09BC064
:1007A00081C08091C2009091C3008B30910530F0E0
:1007B0008091C2009091C3000A9701C0C801909334
:1007C000C3008093C2006091C2007091C300C80151
:1007D00086D381C08091C0009091C1008B3091057B
:1007E00030F08091C0009091C1000A9701C0C8010B
:1007F0009093C1008093C0006091C0007091C100CF
:1008000082E090E06CD367C08091BE009091BF0001
:100810008B30910530F08091BE009091BF000A9717
:1008200001C0C8019093BF008093BE006091BE00DC
:100830007091BF0084E090E052D34DC08091BC0025
:100840009091BD008B30910530F08091BC0090916B
:10085000BD000A9701C0C8019093BD008093BC0001
:100860006091BC007091BD0086E090E038D333C049
:100870008091BA009091BB008B30910530F080914F
:10088000BA009091BB000A9701C0C8019093BB00C9
:100890008093BA006091BA007091BB0088E090E04C
:1008A0001ED319C08091B8009091B9008B3091058A
:1008B00030F08091B8009091B9000A9701C0C8014A
:1008C0009093B9008093B8006091B8007091B9001E
:1008D0008AE090E004D310DDF6C08091C40082303D
:1008E00009F447C0833030F4882371F0813009F077
:1008F000ABC024C0843009F472C0843008F454C002
:10090000853009F0A1C086C08091C2009091C300DB
:1009100023E0853F920730F48091C2009091C3009C
:100920000A9601C0C7019093C3008093C2006091F2
:10093000C2007091C300C801D2D286C08091C000AD
:100940009091C10023E0853F920730F48091C00070
:100950009091C1000A9601C0C7019093C100809395
:10096000C0006091C0007091C10082E090E0B7D2F9
:100970006BC08091BE009091BF0023E0853F92073D
:1009800030F48091BE009091BF000A9601C0C7016B
:100990009093BF008093BE006091BE007091BF0035
:1009A00084E090E09CD250C08091BC009091BD004A
:1009B00023E0853F920730F48091BC009091BD0008
:1009C0000A9601C0C7019093BD008093BC0060915E
:1009D000BC007091BD0086E090E081D235C080916E
:1009E000BA009091BB0023E0853F920730F48091DC
:1009F000BA009091BB000A9601C0C7019093BB005A
:100A00008093BA006091BA007091BB0088E090E0DA
:100A100066D21AC08091B8009091B90023E0853F5A
:100A2000920730F48091B8009091B9000A9601C005
:100A3000C7019093B9008093B8006091B80070919D
:100A4000B9008AE090E04BD257DC3DC08091C400F1
:100A5000823091F0833028F4882351F0813099F46A
:100A600009C0843069F0843048F0853061F40AC0F0
:100A7000C09A09C0C19A07C0C29A05C0C39A03C0F0
:100A8000C49A01C0C59A38DC1EC08091C40082306F
:100A900091F0833028F4882351F0813099F409C013
:100AA000843069F0843048F0853061F40AC0C09821
:100AB00009C0C19807C0C29805C0C39803C0C498B4
:100AC00001C0C59819DC188219821A821B82F4CDE4
:100AD000AA1BBB1B51E107C0AA1FBB1FA617B70764
:100AE00010F0A61BB70B881F991F5A95A9F7809580
:100AF0009095BC01CD010895AEE0B0E0E1E8F5E0ED
:100B0000BCC20D891E8986E08C831A8309838FEF0E
:100B10009FE79E838D83AE01475E5F4FCE010196B6
:100B20006F89788D08D0EF81F885E00FF11F108272
:100B30002E96E4E0BEC2ADE0B0E0E0EAF5E08FC2A0
:100B40003C017D876C875A01FC01178216828381E4
:100B500081FFBBC12E010894411C511CF3019381FC
:100B6000EC85FD8593FD859193FF8191FD87EC8751
:100B7000882309F4A6C1853241F493FD859193FF42
:100B80008191FD87EC87853221F490E0B301C0D1DB
:100B9000E5CFFF24EE2410E01032B0F48B3269F080
:100BA0008C3228F4803251F0833271F40BC08D32D4
:100BB00039F0803349F411602CC01260146029C0F0
:100BC000186027C0106125C017FD2EC0282F2053A4
:100BD0002A3098F416FF08C08F2D880FF82EFF0CCE
:100BE000FF0CF80EF20E15C08E2D880FE82EEE0CBD
:100BF000EE0CE80EE20E10620CC08E3221F416FDEF
:100C000060C1106406C08C3611F4106802C08836CA
:100C100059F4EC85FD8593FD859193FF8191FD87C6
:100C2000EC87882309F0B8CF982F9554933018F0AB
:100C30009052933038F424E030E0A20EB31E3FE32C
:100C400039830FC0833631F0833781F0833509F063
:100C500056C021C0F5018081898322E030E0A20ED8
:100C6000B31E21E0C22ED12C420113C092E0292EE6
:100C7000312C2A0C3B1CF5018080918016FF03C0AB
:100C80006F2D70E002C06FEF7FEFC40136D16C01B1
:100C900051011F7714C082E0282E312C2A0C3B1CF6
:100CA000F5018080918016FF03C06F2D70E002C0B7
:100CB0006FEF7FEFC40116D16C011068510113FD75
:100CC0001AC005C080E290E0B30122D1EA948E2DD3
:100CD00090E0C816D906B0F30EC0F40117FD859157
:100CE00017FF81914F0190E0B30112D1E110EA9416
:100CF0000894C108D108C114D10479F7DFC0843643
:100D000011F0893649F5F50117FF07C080819181FF
:100D1000A281B38124E030E008C080819181AA27BC
:100D200097FDA095BA2F22E030E0A20EB31E012F4E
:100D30000F76B7FF08C0B095A095909581959F4F0D
:100D4000AF4FBF4F0068BC01CD01A2012AE030E0E7
:100D50000BD1D82ED4183EC0853721F41F7E2AE04F
:100D600030E020C0197F8F36A9F0803720F4883515
:100D700009F0A7C00BC0803721F0883709F0A1C067
:100D800001C0106114FF09C0146007C014FF08C03F
:100D9000166006C028E030E005C020E130E002C067
:100DA00020E132E0F50117FF07C060817181828187
:100DB000938144E050E006C06081718180E090E062
:100DC00042E050E0A40EB51EA201CED0D82ED41819
:100DD000012F0F7706FF09C00E7FDF1430F404FFE8
:100DE00006C002FD04C00F7E02C01D2D01C01F2DD4
:100DF000802F90E004FF0CC0FE01ED0DF11D20815D
:100E0000203311F4097E09C002FF06C01E5F05C031
:100E100086789070009709F01F5F802E992403FD5B
:100E200011C000FF0CC0FD2C1E1548F4FE0CF11A79
:100E30001E2D05C080E290E0B3016AD01F5F1E1531
:100E4000C8F304C01E1510F4E11A01C0EE2484FE9C
:100E50000EC080E390E0B3015BD082FE1DC081FE36
:100E600003C088E590E010C088E790E00DC0C401A1
:100E700086789070009781F081FC02C080E201C00A
:100E80008BE207FD8DE290E0B30142D005C080E324
:100E900090E0B3013DD0FA94DF14C8F3DA94F20184
:100EA000ED0DF11D808190E0B30132D0DD20B1F76E
:100EB00005C080E290E0B3012BD0EA94EE20C9F7A0
:100EC0004DCEF3018681978102C08FEF9FEF2D9663
:100ED000E2E1E1C0A8E1B0E042E050E0A5C0B2D05C
:100EE000272FB1C0FC010590615070400110D8F768
:100EF000809590958E0F9F1F0895FC016150704062
:100F000001900110D8F7809590958E0F9F1F08953E
:100F10000F931F93CF93DF938C01EB018B8181FFA4
:100F20001BC082FF0DC02E813F818C819D812817BF
:100F3000390764F4E881F9810193F983E88306C0F5
:100F4000E885F985802F0995009731F48E819F817E
:100F500001969F838E8302C00FEF1FEFC801DF91C0
:100F6000CF911F910F910895FA01AA27283051F1CE
:100F7000203181F1E8946F936E7F6E5F7F4F8F4FCA
:100F80009F4FAF4FB1E03ED0B4E03CD0670F781F29
:100F9000891F9A1FA11D680F791F8A1F911DA11D0E
:100FA0006A0F711D811D911DA11D20D009F4689447
:100FB0003F912AE0269F11243019305D3193DEF6EF
:100FC000CF010895462F4770405D4193B3E00FD0A5
:100FD000C9F7F6CF462F4F70405D4A3318F0495D90
:100FE00031FD4052419302D0A9F7EACFB4E0A69573
:100FF0009795879577956795BA95C9F70097610595
:10100000710508959B01AC010A2E069457954795EA
:1010100037952795BA95C9F7620F731F841F951FDF
:10102000A01D0895DC01CB01FC01E199FECF06C0B3
:10103000FFBBEEBBE09A31960DB20D92415050408D
:10104000B8F70895262FE199FECF9FBB8EBB2DBB2D
:101050000FB6F894E29AE19A0FBE019608952F9286
:101060003F924F925F926F927F928F929F92AF9238
:10107000BF92CF92DF92EF92FF920F931F93CF9385
:10108000DF93CDB7DEB7CA1BDB0B0FB6F894DEBF1C
:101090000FBECDBF09942A88398848885F846E8442
:1010A0007D848C849B84AA84B984C884DF80EE808C
:1010B000FD800C811B81AA81B981CE0FD11D0FB695
:1010C000F894DEBF0FBECDBFED010895F894FFCFB9
:1010D0002564002020002D2D2D2D2D2D2D2D2D2D85
:1010E0002D2D2D2D2D2D2D2D2D2D2D2D2D2D2D2D30
:1010F0002D2D2D2D2D2D2D2D2D2D2D2D2D2D2D2D20
:101100002D2D2D0D0A007C2000202020002564209C
:0C11100020007C0D0A00202020200000A0
:00000001FF
